:100000000C9434000C943E000C943E000C943E0082
:100010000C943E000C943E000C943E000C943E0068
:100020000C943E000C943E000C943E000C943E0058
:100030000C943E000C943E000C943E000C943E0048
:100040000C943E000C943E000C943E000C943E0038
:100050000C943E000C943E000C943E000C943E0028
:100060000C943E000C943E0011241FBECFEFD8E04C
:10007000DEBFCDBF0E9440000C9462000C940000D3
:1000800080E284B983EC8AB98CE38BB989B149B138
:1000900099B129B155B182FB882780F943FB3327F9
:1000A00030F9382B94FB882780F925FB222720F98B
:1000B000982F922B832F89238295880F807E852B02
:0800C00085B9E4CFF894FFCFED
:00000001FF
